:020000040800F2
:1000000000000220B90E0008090F0008090F0008BF
:10001000090F0008090F0008090F00080000000080
:10002000000000000000000000000000090F0008B0
:10003000090F000800000000090F0008F949000836
:10004000090F0008090F0008090F0008090F000830
:10005000090F0008090F0008090F0008090F000820
:10006000090F0008090F0008090F0008090F000810
:10007000090F0008090F0008090F0008090F000800
:10008000090F0008090F0008090F0008090F0008F0
:10009000090F0008090F0008090F0008090F0008E0
:1000A000090F0008090F0008090F0008090F0008D0
:1000B000090F0008090F0008090F0008090F0008C0
:1000C000090F0008090F0008090F0008090F0008B0
:1000D000090F0008090F0008090F0008090F0008A0
:1000E000090F0008090F0008090F0008090F000890
:1000F000090F0008090F0008090F0008090F000880
:10010000090F0008090F0008090F0008090F00086F
:10011000090F0008090F0008090F0008090F00085F
:10012000090F0008090F0008090F0008090F00084F
:10013000090F0008090F0008090F0008090F00083F
:10014000090F0008090F0008090F0008054A0008F8
:10015000090F0008090F0008090F0008090F00081F
:10016000090F0008090F0008090F0008090F00080F
:10017000090F0008090F0008090F0008000000001F
:08018000090F0008090F000837
:1001900010B5054C237833B9044B13B10448AFF3C1
:1001A00000800123237010BD88050020000000009E
:1001B0006087000808B5034B1BB103490348AFF340
:1001C000008008BD000000008C050020608700084A
:1001D000034613F8012B002AFBD1181A0138704787
:1001E00001F0FF01102A2BDB10F0070F08D010F8E8
:1001F000013B013A8B422DD010F0070F42B3F6D1EC
:10020000F0B441EA012141EA014122F007047FF004
:1002100000070023F0E80256083C85EA010586EA5B
:10022000010685FA47F5A3FA87F586FA47F6A5FA97
:1002300087F68EB9EED1F0BC01F0FF0102F00702A3
:1002400032B110F8013B013A83EA010313B1F8D14E
:100250000020704701387047002D06BF354603382F
:10026000073815F0010F07D1013015F4807F02BF68
:10027000013015F4C03F0130F0BC0138704700BFB9
:1002800081F0004102E000BF83F0004330B54FEA47
:1002900041044FEA430594EA050F08BF90EA020FB4
:1002A0001FBF54EA000C55EA020C7FEA645C7FEA47
:1002B000655C00F0E2804FEA5454D4EB5555B8BF6A
:1002C0006D420CDD2C4480EA020281EA030382EADB
:1002D000000083EA010180EA020281EA0303362D6D
:1002E00088BF30BD11F0004F4FEA01314FF4801C40
:1002F0004CEA113102D0404261EB410113F0004F52
:100300004FEA03334CEA133302D0524263EB430308
:1003100094EA050F00F0A780A4F10104D5F1200EA6
:100320000DDB02FA0EFC22FA05F2801841F1000101
:1003300003FA0EF2801843FA05F359410EE0A5F1D5
:1003400020050EF1200E012A03FA0EFC28BF4CF006
:10035000020C43FA05F3C01851EBE37101F00045BC
:1003600007D54FF0000EDCF1000C7EEB00006EEBC9
:100370000101B1F5801F1BD3B1F5001F0CD3490853
:100380005FEA30004FEA3C0C04F101044FEA4452AA
:1003900012F5800F80F09A80BCF1004F08BF5FEA31
:1003A000500C50F1000041EB045141EA050130BD11
:1003B0005FEA4C0C404141EB010111F4801FA4F1B4
:1003C0000104E9D191F0000F04BF01460020B1FA09
:1003D00081F308BF2033A3F10B03B3F120020CDA41
:1003E0000C3208DD02F1140CC2F10C0201FA0CF01F
:1003F00021FA02F10CE002F11402D8BFC2F1200C84
:1004000001FA02F120FA0CFCDCBF41EA0C01904039
:10041000E41AA2BF01EB0451294330BD6FEA040482
:100420001F3C1CDA0C340EDC04F11404C4F120026D
:1004300020FA04F001FA02F340EA030021FA04F37F
:1004400045EA030130BDC4F10C04C4F1200220FAD6
:1004500002F001FA04F340EA0300294630BD21FA14
:1004600004F0294630BD94F0000F83F4801306BFDA
:1004700081F480110134013D4EE77FEA645C18BFCE
:100480007FEA655C29D094EA050F08BF90EA020F65
:1004900005D054EA000C04BF1946104630BD91EA5D
:1004A000030F1EBF0021002030BD5FEA545C05D160
:1004B0004000494128BF41F0004130BD14F580049F
:1004C0003CBF01F5801130BD01F0004545F0FE4113
:1004D00041F470014FF0000030BD7FEA645C1ABF48
:1004E000194610467FEA655C1CBF0B46024650EA7F
:1004F000013406BF52EA033591EA030F41F40021AB
:1005000030BD00BF90F0000F04BF0021704730B530
:100510004FF4806404F132044FF000054FF0000105
:1005200050E700BF90F0000F04BF0021704730B5C6
:100530004FF4806404F1320410F0004548BF40429B
:100540004FF000013EE700BF42004FEAE2014FEAF0
:1005500031014FEA02701FBF12F07F4393F07F4FCB
:1005600081F06051704792F0000F14BF93F07F4FFD
:10057000704730B54FF4607401F0004521F0004140
:1005800020E700BF50EA010208BF704730B54FF0C6
:1005900000050AE050EA010208BF704730B511F0CB
:1005A000004502D5404261EB41014FF4806404F103
:1005B00032045FEA915C3FF4DCAE4FF003025FEA85
:1005C000DC0C18BF03325FEADC0C18BF033202EB0D
:1005D000DC02C2F1200300FA03FC20FA02F001FA67
:1005E00003FE40EA0E0021FA02F11444C1E600BF06
:1005F00070B54FF0FF0C4CF4E06C1CEA11541DBFB9
:100600001CEA135594EA0C0F95EA0C0F00F0DEF883
:100610002C4481EA030621EA4C5123EA4C5350EA68
:10062000013518BF52EA033541F4801143F48013B9
:1006300038D0A0FB02CE4FF00005E1FB02E506F04A
:100640000042E0FB03E54FF00006E1FB03569CF09F
:10065000000F18BF4EF0010EA4F1FF04B6F5007FA5
:1006600064F5407404D25FEA4E0E6D4146EB060617
:1006700042EAC62141EA55514FEAC52040EA5E50A0
:100680004FEACE2EB4F1FD0C88BFBCF5E06F1ED84A
:10069000BEF1004F08BF5FEA500E50F1000041EB81
:1006A000045170BD06F0004646EA010140EA02002E
:1006B00081EA0301B4EB5C04C2BFD4EB0C0541EA50
:1006C000045170BD41F480114FF0000E013C00F365
:1006D000AB8014F1360FDEBF002001F0004170BD89
:1006E000C4F10004203C35DA0C341BDC04F11404A2
:1006F000C4F1200500FA05F320FA04F001FA05F22E
:1007000040EA020001F0004221F0004110EBD370FA
:1007100021FA04F642EB06015EEA430E08BF20EA26
:10072000D37070BDC4F10C04C4F1200500FA04F3C9
:1007300020FA05F001FA04F240EA020001F000415B
:1007400010EBD37041F100015EEA430E08BF20EACE
:10075000D37070BDC4F1200500FA05F24EEA020E16
:1007600020FA04F301FA05F243EA020321FA04F045
:1007700001F0004121FA04F220EA020000EBD370FC
:100780005EEA430E08BF20EAD37070BD94F0000FFC
:100790000FD101F00046400041EB010111F4801F30
:1007A00008BF013CF7D041EA060195F0000F18BFE1
:1007B000704703F00046520043EB030313F4801F1D
:1007C00008BF013DF7D043EA0603704794EA0C0FD7
:1007D0000CEA135518BF95EA0C0F0CD050EA4106ED
:1007E00018BF52EA4306D1D181EA030101F000416A
:1007F0004FF0000070BD50EA410606BF1046194692
:1008000052EA430619D094EA0C0F02D150EA01369D
:1008100013D195EA0C0F05D152EA03361CBF1046DE
:1008200019460AD181EA030101F0004141F0FE417D
:1008300041F470014FF0000070BD41F0FE4141F401
:10084000780170BD70B54FF0FF0C4CF4E06C1CEA01
:1008500011541DBF1CEA135594EA0C0F95EA0C0FB6
:1008600000F0A7F8A4EB050481EA030E52EA033571
:100870004FEA013100F088804FEA03334FF0805592
:1008800045EA131343EA12634FEA022245EA1115BF
:1008900045EA10654FEA00260EF000419D4208BF70
:1008A000964244F1FD0404F5407402D25B084FEA1D
:1008B0003202B61A65EB03055B084FEA32024FF4C9
:1008C00080104FF4002CB6EB020E75EB030E22BF26
:1008D000B61A754640EA0C005B084FEA3202B6EBE6
:1008E000020E75EB030E22BFB61A754640EA5C0095
:1008F0005B084FEA3202B6EB020E75EB030E22BF25
:10090000B61A754640EA9C005B084FEA3202B6EB25
:10091000020E75EB030E22BFB61A754640EADC00E4
:1009200055EA060E18D04FEA051545EA16754FEA46
:1009300006164FEAC30343EA52734FEAC2025FEA64
:100940001C1CC0D111F4801F0BD141EA00014FF0F3
:1009500000004FF0004CB6E711F4801F04BF0143C4
:100960000020B4F1FD0C88BFBCF5E06F3FF6AFAEE0
:10097000B5EB030C04BFB6EB020C5FEA500C50F170
:10098000000041EB045170BD0EF0004E4EEA1131F3
:1009900014EB5C04C2BFD4EB0C0541EA045170BDFA
:1009A00041F480114FF0000E013C90E645EA060E3E
:1009B0008DE60CEA135594EA0C0F08BF95EA0C0F6C
:1009C0003FF43BAF94EA0C0F0AD150EA01347FF4B4
:1009D00034AF95EA0C0F7FF425AF104619462CE78B
:1009E00095EA0C0F06D152EA03353FF4FDAE1046EE
:1009F000194622E750EA410618BF52EA43067FF43F
:100A0000C5AE50EA41047FF40DAF52EA43057FF4CE
:100A1000EBAE12E74FF0FF3C06E000BF4FF0010CD9
:100A200002E000BF4FF0010C4DF804CD4FEA410C3D
:100A30007FEA6C5C4FEA430C18BF7FEA6C5C1BD00A
:100A400001B050EA410C0CBF52EA430C91EA030F8B
:100A500002BF90EA020F0020704710F1000F91EAE8
:100A6000030F58BF994208BF90422CBFD8176FEAB6
:100A7000E37040F0010070474FEA410C7FEA6C5C84
:100A800002D150EA013C07D14FEA430C7FEA6C5C8B
:100A9000D6D152EA033CD3D05DF8040B704700BFB7
:100AA0008446104662468C461946634600E000BF05
:100AB00001B5FFF7B7FF002848BF10F1000F01BDD7
:100AC0004DF808EDFFF7F4FF0CBF012000205DF8A2
:100AD00008FB00BF4DF808EDFFF7EAFF34BF012027
:100AE00000205DF808FB00BF4DF808EDFFF7E0FFC0
:100AF00094BF012000205DF808FB00BF4DF808ED11
:100B0000FFF7CEFF94BF012000205DF808FB00BF77
:100B10004DF808EDFFF7C4FF34BF012000205DF859
:100B200008FB00BF4FEA410C7FEA6C5C02D150EA3F
:100B3000013C0AD14FEA430C7FEA6C5C02D152EAD5
:100B4000033C02D14FF0000070474FF001007047A6
:100B50004FEA410212F5001215D211D56FF47873E5
:100B6000B3EB625212D94FEAC12343F0004343EA88
:100B7000505311F0004F23FA02F018BF4042704763
:100B80004FF00000704750EA013005D111F00040ED
:100B900008BF6FF0004070474FF00000704700BF83
:100BA00053B94AB9002908BF00281CBF4FF0FF31D4
:100BB0004FF0FF3000F07EB9ADF1080C6DE904CEC6
:100BC00000F006F8DDF804E0DDE9022304B0704728
:100BD0002DE9F0478C460E460446089D002B50D167
:100BE0008A4217466CD9B2FA82FEBEF1000F0BD0D2
:100BF000CEF1200420FA04F401FA0EF644EA060CC1
:100C000002FA0EF700FA0EF44FEA1749220CBCFB69
:100C1000F9F01FFA87F809FB10C642EA064600FB06
:100C200008F3B34209D9F61900F1FF3280F02281AE
:100C3000B34240F21F8102383E44F61AA2B2B6FB1C
:100C4000F9F309FB136642EA064403FB08F8A045E2
:100C500009D9E41903F1FF3280F00A81A04540F27E
:100C60000781023B3C44C8EB040443EA00400021F6
:100C7000002D62D024FA0EF400232C606B60BDE8D6
:100C8000F0878B4207D9002D55D0002185E841001F
:100C90000846BDE8F087B3FA83F1002940F0908060
:100CA000B34202D3824200F2F880841A66EB030654
:100CB0000120B446002D40D085E81010BDE8F08733
:100CC00012B90127B7FBF2F7B7FA87FEBEF1000FA2
:100CD00035D1F31B4FEA17481FFA87FC0121B3FBFC
:100CE000F8F0220C08FB103642EA06460CFB00F333
:100CF000B34207D9F61900F1FF3202D2B34200F233
:100D0000CE801046F61AA2B2B6FBF8F308FB1366C3
:100D100042EA06440CFB03FCA44507D9E41903F19D
:100D2000FF3202D2A44500F2B5801346CCEB040496
:100D300043EA00409CE729462846BDE8F087CEF10B
:100D4000200106FA0EF307FA0EF720FA01F94FEA2E
:100D50001748CE4049EA0309B6FBF8FA4FEA1944AE
:100D600008FB1A661FFA87FC44EA06430AFB0CF2EA
:100D70009A4200FA0EF40AD9DB190AF1FF3180F029
:100D800087809A4240F28480AAF1020A3B449B1A6F
:100D90001FFA89F9B3FBF8F108FB113349EA034361
:100DA00001FB0CF69E4207D9DB1901F1FF326BD231
:100DB0009E4269D902393B449B1B41EA0A418EE7B6
:100DC000C1F1200E22FA0EF48B40234320FA0EF7D5
:100DD00006FA01F44FEA134C26FA0EF63C43B6FB32
:100DE000FCF9270C0CFB19661FFA83F847EA064644
:100DF00009FB08F7B74202FA01F200FA01FA08D932
:100E0000F61809F1FF3041D2B7423FD9A9F10209E2
:100E10001E44F61BA0B2B6FBFCF40CFB146640EAC1
:100E2000064704FB08F8B84507D9FF1804F1FF305E
:100E300028D2B84526D9023C1F4444EA0940C8EBF1
:100E40000707A0FB02894F4544464E4614D329D0DC
:100E500065B3BAEB040367EB060707FA0EFECB4057
:100E6000CF404EEA030385E888000021BDE8F08703
:100E70001346F8E61046E0E6B8EB020469EB030619
:100E80000138E5E70446D8E7114695E78146C0E713
:100E90008A467CE7023B3C4448E708460AE70238BA
:100EA0003E442FE7C245E7D33E46D1E72946BDE899
:100EB000F08700BF704700BFDFF834D0002103E0A7
:100EC0000C4B5B58435004310B480C4B42189A4270
:100ED000F6D30B4A02E0002342F8043B094B9A4246
:100EE000F9D300F013F803F0CFFE03F0EFFC7047E6
:100EF00000000220948F00080000002088050020D8
:100F000088050020AC0C0020FEE700000F49D1F856
:100F1000883043F47003C1F888300D4B1A6842F0F2
:100F200001021A60002098601A6822F0847222F48C
:100F300080321A60074A5A601A6822F480221A60C6
:100F4000D8604FF000638B60704700BF00ED00E099
:100F5000003802401030002410B50446074B1B68CF
:100F60000748A0FB0330800900F092F800222146D8
:100F70004FF0FF3000F04EF8002010BD00000020C0
:100F8000D34D621008B50B4B1A6842F400721A6018
:100F90001A6842F480621A601A6842F480721A6019
:100FA000032000F025F80020FFF7D6FF03F0CAFC6D
:100FB000002008BD003C0240024A13680133136060
:100FC000704700BFE0050020014B1868704700BF64
:100FD000E005002010B582B00190FFF7F5FF044650
:100FE000FFF7F2FF001B019B9842F9D302B010BD3E
:100FF000074AD36823F4E0631B041B0C000200F4CF
:10100000E060184340F0BF6040F40030D0607047AB
:1010100000ED00E030B4164BDB68C3F30223C3F1EC
:101020000704042C28BF04241D1D062D01D9DD1E34
:1010300000E00025012303FA04F4013C2140A9400B
:10104000AB40013B1A400A43002806DA00F00F00CB
:101050001201D2B2074B1A5407E01201D2B200F1CA
:10106000604000F5614080F8002330BC704700BF4D
:1010700000ED00E014ED00E0420900F01F00012344
:1010800003FA00F0014B43F82200704700E100E052
:101090000138B0F1807F0AD2064B5860F021064A31
:1010A00082F823100020986007221A607047012000
:1010B000704700BF10E000E000ED00E0042805D11B
:1010C000054A136843F0040313607047024A13682B
:1010D00023F004031360704710E000E0704700BF86
:1010E00008B5FFF7FBFF08BDF0B583B00024CDE0E5
:1010F0000123A3400A6803EA0205AB4240F0C58021
:101100004A68022A01D0122A10D1E608083650F89F
:1011100026C004F0070297000F22BA402CEA020E04
:101120000A69BA404EEA020240F8262002686700C7
:101130000326BE40F64302EA060E4A6802F00302A6
:10114000BA404EEA020202604A6802F1FF3EBEF176
:10115000010F03D9112A01D0122A10D1826806EAA0
:10116000020ECA68BA404EEA02028260426822EA6F
:1011700003034A68C2F30012A2401A434260C368E4
:101180001E408B68BB403343C3604B6813F0805FE5
:101190007BD000230193404B5A6C42F480425A6446
:1011A0005B6C03F480430193019BA608B21C3B4B8C
:1011B00053F8227004F003039B000F229A4027EAA1
:1011C0000207374A90421DD002F5806290421BD040
:1011D00002F58062904219D002F58062904217D0E9
:1011E00002F58062904215D002F58062904213D0E1
:1011F00002F58062904211D002F5806290420FD1D8
:1012000007220EE000220CE001220AE0022208E0A0
:10121000032206E0042204E0052202E0062200E0A8
:10122000082202FA03F33B4302361C4A42F82630F6
:101230001C4B1A68EB4302EA03064F6817F4803F21
:1012400001D045EA0206174A1660526803EA020610
:101250004F6817F4003F01D045EA0206114A566074
:10126000926803EA02064F6817F4801F01D045EA2E
:1012700002060C4A9660D26813404E6816F4001FAE
:1012800001D045EA0203074AD36001340F2C7FF6F0
:101290002FAF03B0F0BD00BF00380240003801405E
:1012A00000000240003C01400AB18161704709041E
:1012B000816170474369594041617047F8B50768DB
:1012C0003A6AC2F34343C2F30A14022B30D102F04C
:1012D0000F056CB305EB8502D3000344596C39B399
:1012E00006462246384601F0D9FAAA002A44D3001D
:1012F00033445A6C22445A64DA6C2244DA6407EBB1
:101300004513D3F810150B4A0A408AB1D3F80025CB
:1013100022F0804242F00042C3F80025AB00591988
:10132000CA00324492F8503083F0010382F8503002
:10133000F8BD00BF0000F81FF0B585B09DF828602B
:101340009DF82C70BDF830E090F89042012C29D027
:101350000546012085F89002880000EB010C4FEA59
:10136000CC042C4484F83830A4F840E084F83910D8
:1013700084F83F7002F07F0C84F83AC04FEAD21C28
:1013800084F83BC00844C4002C4484F83C60CDF889
:1013900008E001970096286801F098FB002385F883
:1013A000903200E0022005B0F0BD00BF90F890320E
:1013B000012B0BD010B50446012380F89032006851
:1013C00001F046FD002084F8900210BD0220704715
:1013D000002836D0F0B58BB00646032380F8913252
:1013E00003F058FB306801F001FA344654F810EB72
:1013F0006D460FCC0FC50FCC0FC594E8030085E8F0
:101400000300371D97E80E00704601F0B1F9012185
:10141000306801F0F1F9344654F810EB6D460FCC0A
:101420000FC50FCC0FC594E8030085E8030097E8CB
:101430000E00704601F06AFA012386F8913200200E
:1014400001E0012070470BB0F0BD00BFF8B59DF87A
:101450001870BDF820609DF824E08D000D44EC006C
:10146000044484F83B2084F83F303FB901EB810508
:10147000EC000444032584F8425006E001EB8105AA
:10148000EC000444022584F84250032B00F2AA80A9
:10149000DFE803F002A13572012F40F0A380002A9B
:1014A00040F0A08036B901EB8102D3000344012251
:1014B00083F8512001EB8102D300034493F85130AB
:1014C0003BB901EB8102D3000344002283F84220A0
:1014D00006E001EB8102D3000344022283F842209C
:1014E00001EB8102D300034493F85C30022B79D0E6
:1014F00001EB8102D300034483F83DE072E022BB9C
:1015000001EB8102D300034493F851303BB901EB66
:101510008102D3000344002283F8422006E001EB5D
:101520008102D3000344022283F8422001EB8102AE
:10153000D300034493F85C30022B53D001EB8102BB
:10154000D300034483F83DE04CE001EB8102D3007B
:10155000034493F850303BB901EB8102D3000344BC
:10156000002283F842203DE001EB8102D3000344D6
:10157000022283F8422035E0B2B901EB8102D300A8
:10158000034493F851303BB901EB8102D30003448B
:10159000002283F8422025E001EB8102D3000344BE
:1015A000022283F842201DE001EB8102D3000344B4
:1015B00093F850303BB901EB8102D3000344002281
:1015C00083F842200EE001EB8102D30003440222A3
:1015D00083F8422006E001EB8102D300034400229D
:1015E00083F842208C006218D3000344079A5A649F
:1015F0009E64002283F85C20DA6483F8391083F853
:101600005D202144CB0003F13801027C01440068D5
:1016100001F0D0FAF8BD00BF30B583B005460468CC
:10162000D4F840340193D4F840340093009B23F065
:101630002E030093019B13F0020F0DD0019B13F0BA
:10164000010F05D0A36923F00053A36103F064FAEE
:10165000009B43F002030093019B13F0080F30D06E
:10166000009B43F008030093019B13F0040F1DD06F
:10167000AB69022B0FD1019B03F4C023B3F5802F7C
:1016800004D10221286801F0B7F90BE00121286894
:1016900001F0B2F906E0EB68032B03D14EF66022AD
:1016A000C4F80424284603F037FA0AE0D4F840349A
:1016B00023F02E03C4F840342A68936943F00053A2
:1016C0009361019B13F0200F03D0009B43F0200394
:1016D0000093009BC4F8403403B030BDF8B5064613
:1016E0000D46076807EB411707F5A064A36813F0E0
:1016F000040F06D00423A360E36843F00203E36011
:1017000034E0A36813F0200F02D02023A3602DE063
:10171000A36813F0080F12D0E36843F00203E360FC
:1017200001EB8102D3000344052283F85D201023DE
:10173000A3600823A360006801F08AFB16E0A36899
:1017400013F4806F12D0E36843F00203E360006893
:1017500001F07EFB1023A36005EB8502D300334428
:10176000082283F85D204FF48063A360A36813F41C
:10177000007F0BD0E36843F00203E3602946306842
:1017800001F066FB4FF40073A360F8BDA36813F08B
:10179000010F46D0336963B1AB005919CA00324416
:1017A000926C2169C1F31201511A2B44DA003244C0
:1017B000D164AA002A44D3003344012283F85D2077
:1017C00000219965A26093F83F300BB1022B0AD13A
:1017D000E36843F00203E3602946306801F038FB18
:1017E0001023A36012E0032B10D1D7F8003543F08B
:1017F0000053C7F8003505EB8502D30033440122BE
:1018000083F85C202946304603F092F9AB00591961
:10181000CA00324492F8503083F0010382F850300D
:10182000F8BDA36813F0020F50D0E36823F0020361
:10183000E36005EB8502D300334493F85D30012B60
:1018400007D105EB8502D3003344012283F85C20E5
:101850002FE0052B07D105EB8502D3003344052289
:1018600083F85C2025E0062B01D0082B21D1AA00AB
:101870002A44D30033449A6D511C9965032A09D92F
:10188000AA002A44D300334400229A65042283F834
:101890005C2006E005EB8502D3003344022283F886
:1018A0005C20D7F8003523F0804343F00043C7F8AD
:1018B00000350223A36005EB8502D300334493F87F
:1018C0005C202946304603F033F9F8BDA36813F0D5
:1018D000800F17D0E36843F00203E360AB005919AF
:1018E000CA003244916D013191652B44DA003244D3
:1018F000062382F85D302946306801F0A9FA80237A
:10190000A360F8BDA36813F0100F24D005EB850287
:10191000D300334493F83F30032B08D1E36843F0FE
:101920000203E3602946306801F092FA0AE00BB145
:10193000022B07D1D7F8003523F0804343F0004352
:10194000C7F8003505EB8505EB001E44032386F838
:101950005D301023A360F8BDF8B5036803EB4113B5
:1019600003F5A064A26812F0040F06D00423A3605C
:10197000E36843F00203E360F8BD0E460546A26843
:1019800012F0200F1FD02023A36001EB8102D300AF
:10199000034493F83D30012B40F02D818F007A18DD
:1019A000D3000344042283F85D20E36843F002037C
:1019B000E360006801F04CFAB919C800284402231A
:1019C00080F85C30F8BDA26812F0400F16D08B0092
:1019D0005918CA000244042182F85D103344DA0029
:1019E000024400239365E36843F00203E360314659
:1019F000006801F02DFA4023A360F8BDA26812F43C
:101A0000007F0AD0E36843F00203E360006801F05E
:101A10001FFA4FF40073A360F8BDA26812F0010F23
:101A200014D08F007A18D300034400229A65E3682B
:101A300043F00203E360006801F00AFA0123A360A7
:101A4000B919C800284480F85D30F8BDA26812F0CA
:101A5000080F10D00823A360E36843F00203E3609B
:101A6000006801F0F5F906EB8601C800284405235B
:101A700080F85D30F8BDA26812F0100F15D08F000D
:101A80007A18D300034400229A65E36843F0020306
:101A9000E360006801F0DCF9B919C80028440323A9
:101AA00080F85D301023A360F8BDA26812F0800FAB
:101AB00010D0E36843F00203E360006801F0C8F966
:101AC00006EB8601C8002844062380F85D30802399
:101AD000A360F8BDA26812F4806F13D0E36843F0EE
:101AE0000203E360006801F0B3F91023A3604FF430
:101AF0008063A36006EB8601CB002B44082283F8A9
:101B00005D20F8BDA26812F0020F74D0E26822F0E6
:101B10000202E26001EB8101CA00024492F85D20FA
:101B2000012A15D1B2003244D3000344012283F8C4
:101B30005C2093F83F30022B51D1B2003244D300E5
:101B4000034493F8512082F0010283F8512046E0CB
:101B5000032A07D106EB8602D3000344022283F84E
:101B60005C203CE0042A0AD1B2003244D300034492
:101B7000022283F85C20002283F83D202FE0052A12
:101B800007D106EB8602D3000344052283F85C20CC
:101B900025E0062A01D0082A21D1B1003144CA002B
:101BA0002A44916D481C9065032909D9B10031443C
:101BB000CA002A4400219165042182F85C1006E0E5
:101BC00006EB8601CA002A44022182F85C10D3F891
:101BD000002522F0804242F00042C3F80025022393
:101BE000A36006EB8602D3002B4493F85C203146B9
:101BF000284602F09DFFF8BDF8B504460568284662
:101C000000F062FE012840F09480206800F058FE49
:101C1000002800F08E80206800F052FE10F4001FB3
:101C200003D023684FF400125A61206800F048FE88
:101C300010F4801F03D023684FF480125A6120688B
:101C400000F03EFE10F0806F03D023684FF08062FA
:101C50005A61206800F034FE10F0020F02D02368B1
:101C600002225A61206800F02BFE10F0005F10D0B5
:101C7000D5F8403423F02E03C5F84034204602F056
:101C800051FF0121206800F0B7FE23684FF0005299
:101C90005A61206800F014FE10F0807F02D02046C8
:101CA000FFF7BAFC206800F00BFE10F0080F05D01B
:101CB000204602F02BFF236808225A61206800F0BA
:101CC000FFFD10F0007F21D0206801F0B1F8074639
:101CD000002614E00123B3401F420FD005EB46134A
:101CE000D3F8003513F4004F04D0F1B22046FFF7CB
:101CF000F5FC03E0F1B22046FFF72EFE0136A368A3
:101D00009E42E7D323684FF000725A61206800F0CA
:101D1000D7FD10F0100F0CD02268936923F0100348
:101D200093612046FFF7CAFA2268936943F01003D3
:101D30009361F8BD38B590F89032012B0ED004466F
:101D4000012580F89052006800F04AFD294620687D
:101D500000F08CFE002084F8900238BD022038BDCF
:101D600090F89032012B0BD010B50446012380F877
:101D70009032006801F08CF9002084F8900210BDC8
:101D80000220704708B5006800F056FE08BD00BF8D
:101D900001EB8101CB00184490F85C00704700BF54
:101DA00008B5006800F08CFE08BD00BF08B50068EB
:101DB00000F07CFE08BD00BF30B583B00446036868
:101DC00013F0010F3CD0AD4B9B6803F00C03042BC8
:101DD0000AD0AA4B9B6803F00C03082B0CD1A74B2D
:101DE0005B6813F4800F07D0A44B1B6813F4003F0B
:101DF00026D0636823BB6EE12279A14B1A70636819
:101E00007BB1FFF7E1F8054605E0FFF7DDF8401B81
:101E1000642800F26281994B1B6813F4003FF4D0F0
:101E20000EE0FFF7D1F8054605E0FFF7CDF8401BBF
:101E3000642800F25481914B1B6813F4003FF4D1E5
:101E4000236813F0020F5AD08C4B9B6813F00C0FD1
:101E50000AD08A4B9B6803F00C03082B1BD1874BDD
:101E60005B6813F4800F16D1844B1B6813F0020FCC
:101E700003D0E368012B40F034818048036823F0ED
:101E8000F8012369F82292FAA2F2B2FA82F29340A0
:101E90000B43036033E0E368FBB10122794B1A6026
:101EA000FFF792F8054605E0FFF78EF8401B022881
:101EB00000F21981714B1B6813F0020FF4D06F48C8
:101EC000036823F0F8012369F82292FAA2F2B2FA29
:101ED00082F293400B43036011E00022694B1A60C9
:101EE000FFF772F8054605E0FFF76EF8401B022881
:101EF00000F2FB80614B1B6813F0020FF4D12368E2
:101F000013F0080F26D0636993B101225E4B1A606B
:101F1000FFF75AF8054605E0FFF756F8401B022880
:101F200000F2E580554B5B6F13F0020FF4D011E027
:101F30000022554B1A60FFF747F8054605E0FFF70A
:101F400043F8401B022800F2D4804C4B5B6F13F027
:101F5000020FF4D1236813F0040F47D0002301933C
:101F6000464B1A6C42F080521A641B6C03F080538B
:101F70000193019B454A136843F480731360FFF794
:101F800023F8054605E0FFF71FF8401B022800F282
:101F9000B2803E4B1B6813F4807FF4D0227A3C4B16
:101FA0001A70A3688BB1FFF70FF8054607E0FFF73B
:101FB0000BF8401B41F28833984200F29E802F4B71
:101FC0001B6F13F0020FF2D010E0FEF7FDFF054685
:101FD00007E0FEF7F9FF401B41F28833984200F218
:101FE0008E80264B1B6F13F0020FF2D1A369002BDA
:101FF00000F08780214A926802F00C02082A00F063
:102000008280022B54D10022224B1A60FEF7DCFFA3
:10201000054604E0FEF7D8FF401B022875D8174B91
:102020001B6813F0007FF5D1E169236A1943636AE5
:1020300047F6C07292FAA2F2B2FA82F293401943C2
:10204000A36A5B085A1E4FF4403393FAA3F3B3FA22
:1020500083F302FA03F30B43E26A4FF0706191FAE3
:10206000A1F1B1FA81F18A401343044A536001227D
:10207000084B1A60FEF7A8FF044612E00038024041
:102080000238024000004742800E47420070004084
:102090007038024060004742FEF796FF001B02289E
:1020A00035D81D4B1B6813F0007FF5D0002031E0C0
:1020B00000221A4B1A60FEF787FF044604E0FEF781
:1020C00083FF001B022824D8134B1B6813F0007FEA
:1020D000F5D100201EE001201CE003201AE00320BF
:1020E00018E0012016E0032014E0032012E0032092
:1020F00010E003200EE003200CE003200AE00320A0
:1021000008E0002006E0012004E0032002E00320B4
:1021100000E0032003B030BD0038024060004742B9
:10212000254B9B6803F00C03042B3FD0082B01D0F8
:102130002248704710B4204B586800F03F005B689D
:1021400013F4800F10D01E4BB3FBF0F01A4B5A68FB
:1021500047F6C0710A4091FAA1F3B3FA83F322FA69
:1021600003F303FB00F310E0144BB3FBF0F0124B4E
:102170005A6847F6C07402EA040194FAA4F2B2FA6B
:1021800082F221FA02F202FB00F30B4A506800F4DB
:1021900040324FF4403090FAA0F0B0FA80F022FACA
:1021A00000F001304000B3FBF0F001E0044870475C
:1021B0005DF8044B704700BF003802400024F40073
:1021C00000127A0070B5674B1B6803F00F038B4257
:1021D00008D2CBB2634A1370136803F00F0399421D
:1021E00040F0AE80036813F0020F06D05E4CA36887
:1021F00023F0F00283681343A3600D46044603688E
:1022000013F0010F60D04268012A05D1564B1B68BC
:1022100013F4003F0FD195E0931E012B05D8524BCC
:102220001B6813F0007F06D18EE04F4B1B6813F044
:10223000020F00F08B804C498B6823F0030313439B
:102240008B60FEF7C1FE06466368012B0ED106E0E7
:10225000FEF7BAFE801B41F28833984278D8424B91
:102260009B6803F00C03042BF2D12DE0022B0ED15E
:1022700006E0FEF7A9FE801B41F28833984269D838
:10228000394B9B6803F00C03082BF2D11CE0032BA5
:1022900015D106E0FEF798FE801B41F28833984284
:1022A0005AD8314B9B6803F00C030C2BF2D10BE096
:1022B000FEF78AFE801B41F2883398424ED82A4BA3
:1022C0009B6813F00C0FF3D1264B1B6803F00F0330
:1022D0009D4207D2EAB2234B1A701B6803F00F032A
:1022E0009D423DD1236813F0040F06D01E498B6830
:1022F00023F4E052E36813438B60236813F0080F64
:1023000007D0194A936823F46043216943EAC10363
:102310009360FFF705FF144B9B6803F0F002F02376
:1023200093FAA3F3B3FA83F322FA03F30F4AD35CCD
:10233000D8400F4B18600020FEF70EFE002070BD45
:10234000012070BD012070BD012070BD012070BD55
:10235000032070BD032070BD032070BD032070BD3D
:10236000012070BD003C0240003802407887000820
:1023700000000020014B1868704700BF00000020DB
:1023800008B5FFF7F7FF084B9B6803F4E0524FF4E2
:10239000E05393FAA3F3B3FA83F322FA03F3034A65
:1023A000D35CD84008BD00BF0038024078870008E1
:1023B00008B5FFF7DFFF084B9B6803F460424FF45A
:1023C000604393FAA3F3B3FA83F322FA03F3034AC5
:1023D000D35CD84008BD00BF0038024078870008B1
:1023E0002DE9F843044601680B6923F44052C368A1
:1023F00013430B610068C36823F4164222F00C02F9
:10240000A1682369194363691943E3690B431343C3
:10241000C36021684B6923F44072A36913434B6185
:10242000E369B3F5004F40F0BB80276803F18043B8
:1024300003F510439F4203D003F580639F4257D1B9
:10244000FFF7B6FF00EB800000EB800065686D00D1
:10245000B0FBF5F5AB4EA6FB05356D092D01FFF779
:10246000A7FF00EB800000EB800063685B00B0FB1F
:10247000F3F9FFF79DFF00EB800000EB800063683D
:102480005B00B0FBF3F3A6FB03235B094FF064088A
:1024900008FB1393DB003233A6FB03235B095B00CD
:1024A00003F4F8731D44FFF783FF00EB800000EB9B
:1024B000800063685B00B0FBF3F9FFF779FF00EB86
:1024C000800000EB800063685B00B0FBF3F3A6FBC9
:1024D00003235B0908FB13984FEAC80808F1320888
:1024E000A6FB0836C6F342163544BD60BDE8F88346
:1024F000FFF746FF00EB800000EB800065686D0091
:10250000B0FBF5F57F4EA6FB05356D092D01FFF7F4
:1025100037FF00EB800000EB800063685B00B0FBDE
:10252000F3F9FFF72DFF00EB800000EB80006368FC
:102530005B00B0FBF3F3A6FB03235B094FF06408D9
:1025400008FB1393DB003233A6FB03235B095B001C
:1025500003F4F8731D44FFF713FF00EB800000EB5A
:10256000800063685B00B0FBF3F9FFF709FF00EB45
:10257000800000EB800063685B00B0FBF3F3A6FB18
:1025800003235B0908FB13984FEAC80808F13208D7
:10259000A6FB0836C6F342163544BD60BDE8F88395
:1025A0002668594B9E4203D003F580639E4254D166
:1025B000FFF7FEFE00EB800000EB80006568AD00D9
:1025C000B0FBF5F54F4FA7FB05356D092D01FFF762
:1025D000EFFE00EB800000EB800063689B00B0FB27
:1025E000F3F8FFF7E5FE00EB800000EB8000636886
:1025F0009B00B0FBF3F3A7FB03235B094FF06409D7
:1026000009FB13831B013233A7FB03235B0903F090
:10261000F0031D44FFF7CCFE00EB800000EB8000D0
:1026200063689B00B0FBF3F8FFF7C2FE00EB80008D
:1026300000EB800063689B00B0FBF3F3A7FB032370
:102640005B0909FB13831B013233A7FB0323C3F38D
:1026500043131D44B560BDE8F883FFF791FE00EB1E
:10266000800000EB80006568AD00B0FBF5F5254FFC
:10267000A7FB05356D092D01FFF782FE00EB8000F9
:1026800000EB800063689B00B0FBF3F8FFF778FE77
:1026900000EB800000EB800063689B00B0FBF3F36D
:1026A000A7FB03235B094FF0640909FB13831B019C
:1026B0003233A7FB03235B0903F0F0031D44FFF74C
:1026C0005FFE00EB800000EB800063689B00B0FBC6
:1026D000F3F8FFF755FE00EB800000EB8000636825
:1026E0009B00B0FBF3F3A7FB03235B0909FB1383F8
:1026F0001B013233A7FB0323C3F343131D44B5600F
:10270000BDE8F8831F85EB510010014068B310B598
:10271000044690F8393013F0FF0F04D1002380F8FD
:10272000383002F03FF9242384F839302268D36826
:1027300023F40053D3602046FFF752FE226813694A
:1027400023F4904313612268536923F02A035361F1
:102750002268D36843F40053D3600020E063202351
:1027600084F8393084F83A3010BD0120704700BF3A
:1027700084B010B5044603A880E80E00089B012B26
:1027800018D1A36B23F48033A363E36823F4840399
:1027900023F04003E360E36823F44013E3600F9BFE
:1027A000012B03D1E36843F48013E360204600F07B
:1027B0008FF809E0E36843F04003E360204600F04F
:1027C00087F84FF48033A363069B012B03D1A368E2
:1027D00043F02003A3600020BDE8104004B0704720
:1027E000836843F00103836000207047836823F00F
:1027F000010383600020704708B5C36823F0C0431D
:10280000C360012904D1C36843F00053C36004E0EE
:1028100019B9C36843F08043C3603220FEF7DAFB86
:10282000002008BD890141F020010161002301332E
:10283000054A934205D8026912F0200FF7D1002013
:1028400070470320704700BF400D03001023036151
:1028500000230133054A934205D8026912F0100F94
:10286000F7D1002070470320704700BF400D0300E0
:1028700070B49DF80C406CB903339B08002507E049
:1028800000EB023404F5805451F8046B26600135E6
:102890009D42F5D3002070BC704700BF10B40332D6
:1028A0009208002305E000F58054246841F8044BA9
:1028B00001339342F7D308465DF8044B704700BFDD
:1028C0004269806910407047406900F0010070471C
:1028D000002301330C4A934211D80269002AF8DA26
:1028E000036943F00103036100230133064A934265
:1028F00007D8026912F0010FF7D1002070470320BA
:1029000070470320704700BF400D030084B038B506
:10291000044605A880E80E0025460023C4F8003EC2
:10292000A36B23F48023A363A36B23F40023A3638B
:10293000A36B43F40013A363079B032B09D1B4F1EA
:10294000A04F06D0D4F8003443F00403C4F8003498
:1029500005E0D4F8003423F00403C4F80034102157
:102960002046FFF75FFF2046FFF770FF002209E0D7
:1029700005EB42134FF0FF31C3F808150021C3F8EF
:102980000C150132069B9A42F2D30121204600F039
:102990006DF8C820FEF71EFB0023A3614FF0FF3344
:1029A0006361B4F1A04F08D18023636203F5C003D3
:1029B000A3620E4BC4F8003108E04FF40073636269
:1029C00003F18073A3620A4BC4F80031089B1BB962
:1029D000A36943F01003A361A269064B1343A361EB
:1029E0000020BDE8384004B0704700BFE000400060
:1029F0000003E000080020A310B400F58064D0F8C4
:102A0000003423F00303C0F80034D0F8003401F0A0
:102A100003021343C0F80034012903D14BF680337D
:102A2000636004E0022902D141F270736360002008
:102A30005DF8044B704700BF10B582B00446D0F873
:102A400040340193019B23F02E030193019B43F437
:102A50008073C0F840340A20FEF7BCFA019B23F4CF
:102A60008073C4F84034002002B010BD82B0D0F8AA
:102A700040340193019B23F02E030193019B13F437
:102A8000805F06D1012904D1019B43F48053C0F833
:102A90004034019B13F4805F05D021B9019B23F4DE
:102AA0008053C0F84034002002B0704782B0D0F8A4
:102AB000403401930198C0F3414002B0704700BF19
:102AC00000F58060806880B2704700BFF0B59DF867
:102AD000184000EB411505F5A0664FF0FF37B760D1
:102AE000032C2BD8DFE804F00220021540F29D47AA
:102AF000F76012F0800F04D0F76847F48077F76032
:102B00001CE0B0F1A04F19D0F76847F06007F760FC
:102B100014E040F29D67F76012F0800F0ED0F76866
:102B200047F48077F76009E040F22527F76012F05C
:102B3000800F03D0F76847F4C077F76000F5806E28
:102B4000D0F81864012707FA01F13143C0F81814CE
:102B5000816941F0007181619B0503F0FE53D10250
:102B600001F4F0410B4312F0800F02D04FF4004209
:102B700000E0002213439DF81420022A02D14FF4F2
:102B8000003200E000221343A20402F44022134367
:102B9000BDF81C20C2F30A021343C5F80035032C0C
:102BA00005D1D5F8003543F00053C5F800350020B5
:102BB000F0BD00BF80B58AB002AFF860B9601346BF
:102BC000FB7100237B7700237B830023FB834FF47F
:102BD00080733B8300237B61FB68B3F1A04F2BD054
:102BE000BB681B79002B27D1FB79002B0BD1BB686D
:102BF0005B79012B07D1BB685B781946F86800F058
:102C00000BFA00230DE1FB79012B15D1BB685B7832
:102C10005A01FB68134403F5A0631946BB685B784F
:102C20005A01FB68134403F5A063DB6823F06003DB
:102C3000CB60BB6800225A71BB681B69002B19D09E
:102C4000BB681B69BA6812891344013BBA681289D0
:102C5000B3FBF2F3FB83FA8B3B8B9A420CD93B8B91
:102C6000FB83FB8BBA68128902FB03F31A46BB682D
:102C70001A6101E00123FB83BB68DB78002B07D0DE
:102C8000FB8BBA68128902FB03F31A46BB681A6110
:102C9000BB685B785A01FB68134403F5A0631946CF
:102CA000BB681B69C3F31202FB8BDB0418465F4B46
:102CB00003401A43BB689B7A5B0703F0C04313438E
:102CC0000B61FB79002B0AD0BB685B785A01FB686B
:102CD000134403F5A0631A46BB68DB685361FB68C5
:102CE00003F580639B6803F00103002B0CBF0123F5
:102CF0000023DBB27B77BB685B785A01FB68134427
:102D000003F5A0631946BB685B785A01FB6813445E
:102D100003F5A0631B6823F000530B60BB685B786E
:102D20005A01FB68134403F5A0631946BB685B783E
:102D30005A01FB68134403F5A0631B687A7F5207AE
:102D400013430B60BB685B785A01FB68134403F5BF
:102D5000A0631B687B617B6923F080437B617B6997
:102D600043F000437B61BB685B785A01FB68134406
:102D700003F5A0631A467B691360FB79002B4FD1E2
:102D8000BB68DB78002B4BD1BB681B69002B47D09D
:102D9000BB68DB79032B31D801A252F823F000BFC6
:102DA000B12D0008D52D0008B12D0008D52D000843
:102DB000BB681B6903339B087B837A8BFB68DB6AE8
:102DC0009BB29A421CD9FB689B6943F02002FB68C6
:102DD0009A6115E0BB681B6903339B087B837A8B80
:102DE000FB6803F580631B699BB29A420AD9FB68B2
:102DF0009B6943F08062FB689A6103E000BF02E0D8
:102E000000BF00E000BFBB68D968BB685A78BB68E8
:102E10001B6998B2002300930346F868FFF728FD6A
:102E2000002318462037BD4680BD00BF0000F81FB4
:102E300080B483B000AF78607B6803F580635B6922
:102E40009BB218460C37BD465DF8047B704700BF47
:102E500080B485B000AF78600B46FB700023FB6048
:102E6000FB785A017B68134403F5A0631B6803F4E5
:102E700040239B0C002B0BD0FB785A017B6813443A
:102E800003F5A0631B6803F440239B0C022B5DD168
:102E9000FB785A017B68134403F5A0631946FB785D
:102EA0005A017B68134403F5A0631B6843F0804319
:102EB0000B607B68DB6A03F47F03002B32D1FB7865
:102EC0005A017B68134403F5A0631946FB785A0145
:102ED0007B68134403F5A0631B6823F000430B6079
:102EE000FB785A017B68134403F5A0631946FB780D
:102EF0005A017B68134403F5A0631B6843F0004349
:102F00000B60FB680133FB60FB68B3F57A7F1BD86D
:102F1000FB785A017B68134403F5A0631B68002B00
:102F2000EFDB71E0FB785A017B68134403F5A06383
:102F30001946FB785A017B68134403F5A0631B68AC
:102F400043F000430B605FE000BF5DE0FB785A0197
:102F50007B68134403F5A0631946FB785A017B682C
:102F6000134403F5A0631B6843F080430B607B6848
:102F700003F580631B699BB2002B32D1FB785A01A9
:102F80007B68134403F5A0631946FB785A017B68FC
:102F9000134403F5A0631B6823F000430B60FB7828
:102FA0005A017B68134403F5A0631946FB785A0164
:102FB0007B68134403F5A0631B6843F000430B6078
:102FC000FB680133FB60FB68B3F57A7F1BD8FB78A5
:102FD0005A017B68134403F5A0631B68002BEFDBE9
:102FE00012E0FB785A017B68134403F5A06319468D
:102FF000FB785A017B68134403F5A0631B6843F018
:1030000000430B6000E000BF002318461437BD46A4
:103010005DF8047B704700BF80B485B000AF786076
:103020000B46FB700123FB730023BB60FB785A0146
:103030007B68134403F5A0631A46FB7BDB04194647
:10304000124B0B4043F000431361FB785A017B683D
:10305000134403F5A0631B68BB60BB6823F0804387
:10306000BB60BB6843F00043BB60FB785A017B68E0
:10307000134403F5A0631A46BB6813600023184687
:103080001437BD465DF8047B704700BF0000F81F91
:1030900080B586B000AF786000233B617868FFF7A9
:1030A000A5FB10217868FFF7BDFB7868FFF7CEFB22
:1030B0000023FB751FE0FB7D5A017B68134403F579
:1030C000A0631B68FB60FB6843F08043FB60FB6808
:1030D00023F00043FB60FB6823F40043FB60FB7DAF
:1030E0005A017B68134403F5A0631A46FB6813601A
:1030F000FB7D0133FB75FB7D0F2BDCD90023FB75BA
:1031000031E0FB7D5A017B68134403F5A0631B6823
:10311000FB60FB6843F08043FB60FB6843F00043C7
:10312000FB60FB6823F40043FB60FB7D5A017B6876
:10313000134403F5A0631A46FB6813603B6901332F
:103140003B613B69B3F57A7F09D8FB7D5A017B6807
:10315000134403F5A0631B68002BEFDB00E000BF06
:10316000FB7D0133FB75FB7D0F2BCAD97B6803F513
:1031700080631A464FF0FF3353617B684FF0FF3294
:103180005A617868FFF72CFB002318461837BD46B4
:1031900080BD00BFD0F87433DB699A78062A08D165
:1031A000D0F8B823196A521A998B8A4201D30422A3
:1031B0009A700020704700BF0B7803704B78437003
:1031C0008B78CA7803EB022343800B7903714B7928
:1031D00043718B798371CB790A7A03EB02230381E4
:1031E000704700BF38B50446D0F87433DD6969789C
:1031F00039B101F0C5F96978204601F0D9F9002309
:103200006B70297841B1204601F0BAF9297820463F
:1032100001F0CEF900232B70D4F87433D86908B1CB
:1032200001F060FD002038BDF0B585B00446D0F84F
:103230007413FF230122097900F012FDFF280DD13C
:10324000584801F079FFD4F874331968564801F0F2
:1032500073FF0A2001F088FF0220A0E0014620460B
:1032600000F0BAFCD4F87453342001F033FDE86167
:10327000D4F87433DD690723AB7094F81F331A2236
:1032800002FB034393F84333012B08D1474801F075
:1032900053FF0A2001F068FF454B2B6312E0022B1D
:1032A00008D1444801F048FF0A2001F05DFF424B7D
:1032B0002B6307E0414801F03FFF0A2001F054FF73
:1032C00002206CE00023AB706B7194F81F331A225C
:1032D00002FB034393F84833AB7694F81F3302FBA9
:1032E0000343B3F84A332B8394F81F3302FB0343A1
:1032F00093F84C33AB83092B01D80A23AB8394F8A2
:103300001F331A2202FB034393F84073022F28BF96
:103310000227002640E094F81F13731C1A2202FBB8
:1033200001F202EBC303234493F8401311F0800F22
:1033300018D02971204601F029F90146687094F8E7
:103340001C332A79288B02900320019094F81D03E6
:103350000090204601F004F900226978204601F02F
:1033600075FC17E0E970204601F010F9014628705D
:1033700094F81C33EA78288B02900320019094F88B
:103380001D030090204601F0EBF80022297820462A
:1033900001F05CFC0136F6B2BE42BCD3002005B0A1
:1033A000F0BD00BF8887000894870008BC8700082C
:1033B0003D370008D4870008D5370008E8870008A3
:1033C00000B583B0009100F58E734FF408520121CF
:1033D00000F0D2FF03B05DF804FB00BF00B583B07E
:1033E000009100F58E734FF40452012100F0C4FFE8
:1033F00003B05DF804FB00BF10B5212404740A2457
:10340000447442EA0122428200218182C1820A463A
:1034100000F090FF10BD00BF38B5A125057401254F
:10342000457442EA01224282002282829DF81020E5
:1034300092B2C282194600F07DFF38BD08B5212244
:1034400002740B224274B1FA81F1490941820021D0
:103450008182C1820A4600F06DFF08BD38B504467E
:10346000D0F87433DD696B79052B36D8DFE803F0CB
:103470000335110319280921FFF7B0FF78BB04F5C4
:103480008E7105F12600FFF797FE02236B71012074
:1034900038BDE98DFFF794FF18BB04236B71012041
:1034A00038BD00221146FFF7A7FF18B905236B713D
:1034B000012038BD032816D105236B71012038BDCA
:1034C0000021FFF7BBFF80B901236B71D4F8C4332F
:1034D000022120469847002038BD012038BD012038
:1034E00038BD012038BD012038BD012038BD00BFE6
:1034F00000238380C380837202810160704700BF14
:10350000837A23BB70B401238372002418E0C3883C
:103510008588AB420DD04D1C0668F35C0B70C388E8
:1035200001339BB2C38001898B4206D10023C38043
:1035300003E000238372204607E00134A4B2294649
:103540009442E4D300238372104670BC704700237A
:1035500083721046704700BF837A43BBF0B40123E7
:10356000837200241CE085886B1CC688B34203D09C
:103570000789BB4204D11EB900238372204614E0A0
:1035800003684E1C09785955838801339BB28380A8
:1035900001898B4201D1002383800134A4B23146DA
:1035A0009442E0D3002383721046F0BC704700239E
:1035B00083721046704700BF30B583B00546D0F81F
:1035C0007433DC69A378062B52D8DFE803F00406D5
:1035D000515121192F00236B98476369227E009275
:1035E000002201212846FFF717FF002840D1228B37
:1035F000616904F10800FFF7AFFF0523A37037E00E
:10360000D0F8B83313F0010F32D00423A3702FE0A9
:103610006378227E616900F07FFF0623A370D5F8EE
:10362000B8332362002384F8243021E0617801F06C
:1036300001FB01280FD194F82430CBB9228B6169AA
:1036400004F10800FFF788FF012384F8243028469E
:1036500001F0F6F90CE06178284601F0EBFA052854
:1036600006D1A17E284600F00DFF08B90423A370FF
:10367000002003B030BD00BF10B5D0F87433DC6952
:10368000228B002A3FD0224904F10800FFF738FFBF
:10369000238B984239D100211E4800F0BDF81E4C02
:1036A000607000211D4800F0B7F8A07000211C4890
:1036B00000F0B2F8E07000211A4800F0ADF8207177
:1036C0000021194800F0A8F860710021174800F0A7
:1036D000A3F8A0710021164800F09EF8E0710021C7
:1036E000144800F099F82072002408E0214612489E
:1036F00000F092F8084B234458720134E4B2052CD0
:10370000F4D9002010BD022010BD022010BD00BF62
:10371000E40500200C8A0008EC050020C48800089D
:103720004488000824880008EC8900080488000800
:10373000A4880008648800088488000838B5D0F898
:103740007433DC69104A0023937053701371D37083
:10375000937153711372D37104E000250B4A42F840
:1037600023500133012BF8D9238B022B01D90223DB
:103770002383064B6361502200F58E7104F108002B
:10378000FFF7B6FE002038BDEC050020E405002060
:1037900008B5FFF771FF08B9014808BD002008BD52
:1037A000EC0500208378012B01D083792BB1437A7B
:1037B000054AD35C054AD05C7047437A024AD35C21
:1037C000034AD05C704700BF2C8A00086889000853
:1037D000E488000810B5D0F87433DC690C4A002383
:1037E000137053709370D37013710A4A1360238B54
:1037F000042B01D904232383064B6361282200F59F
:103800008E7104F10800FFF773FE002010BD00BFA9
:10381000FC05002004060020F0B406460768007A84
:10382000737A43B18B423AD9746804FB010407EB05
:10383000D40704F0070000231C4604E03A78DC00BB
:1038400002FA04F40133726812F0070F02D0D508AF
:10385000013500E0D508AB42F0D3C44001239340CA
:10386000581E0440F1688C421BD331698C421AD82F
:10387000B17A71B1013A012101FA02F2224208D073
:103880005B4243EA0400F3698B420FD003FB00F074
:103890000CE0F069012808D000FB04F006E00020ED
:1038A00004E0002002E0002000E02046F0BC704769
:1038B000002306E003F1DE0200EB820200215160EA
:1038C00001330E2BF6D9002304E0C218002182F840
:1038D0001C110133B3F5007FF7D30023037043704D
:1038E00001228270C0F8B83302764021817143769C
:1038F00080F81C3380F81D231846704708B50378FC
:10390000DBB20A2B04D1D0F874330BB19B69984712
:1039100008BD00BF70B584B004464378072B00F2A1
:10392000E780DFE803F0042B4577808AAACA0821E4
:1039300000F040FD002840F0DD8094F82723A271BC
:103940000125657094F81C332179029200260196B6
:1039500094F81D2300928022204600F001FE94F886
:103960001C336179A2790292019694F81D2300928A
:103970003246204600F0F4FD2846CAE0122100F04D
:1039800019FD002840F0B880B4F82A13624801F00D
:10399000D3FB0A2001F0E8FBB4F828135F4801F0DC
:1039A000CBFB0A2001F0E0FB022363700120B0E0B2
:1039B000012100F047FD002840F0A080022001F026
:1039C0005FF9012584F81C532946554801F0B4FBE2
:1039D0000A2001F0C9FB0323637094F81C3321799A
:1039E000A27902920026019694F81D23009280226B
:1039F000204600F0B5FD94F81C336179A27902925B
:103A0000019694F81D2300923246204600F0A8FD4E
:103A100028467EE0092100F0E5FC002870D104234F
:103A20006370012075E0B0F8341300F0DBFC00286F
:103A300068D10523637001206BE090F82E1391B1DB
:103A400000F58E75FF232A4600F0E4FC00285BD1C8
:103A50002946344801F070FB0A2001F085FB06235B
:103A60006370012055E0304801F066FB0A2001F048
:103A70007BFB0623637001204BE090F82F1391B17C
:103A800000F58E75FF232A4600F0C4FC00283DD1C6
:103A90002946264801F050FB0A2001F065FB072368
:103AA0006370012035E0224801F046FB0A2001F056
:103AB0005BFB0723637001202BE090F8301379B192
:103AC00000F58E75FF232A4600F0A4FC00BB2946B2
:103AD000184801F031FB0A2001F046FB002018E0F5
:103AE000154801F029FB0A2001F03EFB002010E000
:103AF00001200EE001200CE001200AE0012008E096
:103B0000012006E0012004E0012002E0012000E0A5
:103B1000012004B070BD00BF148B0008208B00088A
:103B20002C8B0008448B0008588B00086C8B000815
:103B30007C8B00088C8B0008A08B000838B550B92E
:103B40000E4801F0F9FA0E4801F0F6FA0A2001F0E9
:103B50000BFB022038BD0D46044680F8BC23002331
:103B6000C0F87433C0F87833FFF7A2FE0DB1C4F883
:103B7000C453204600F0DEFF002038BDB48B00089F
:103B8000BC8B000808B5B1B10A46D0F878333BB910
:103B9000591CC0F87813DC3340F82320002008BDFE
:103BA0000A4801F0C9FA0A4801F0C6FA0A2001F0F1
:103BB000DBFA022008BD054801F0BEFA054801F015
:103BC000BBFA0A2001F0D0FA022008BDB48B00082D
:103BD000D08B0008EC8B000838B590F836338B4258
:103BE00026D905460C4685F81F13174801F0A4FA9C
:103BF0000A2001F0B9FA1A2303FB045494F8411384
:103C0000124801F099FA0A2001F0AEFA94F8421332
:103C10000F4801F091FA0A2001F0A6FA94F8431334
:103C20000C4801F089FA0A2001F09EFA002038BD04
:103C3000094801F081FA094801F07EFA0A2001F0F2
:103C400093FA022038BD00BF048C0008248C0008C1
:103C5000348C0008448C0008B48B0008548C000895
:103C600070B400241FE026461A2505FB040595F8CC
:103C700041538D4201D0FF2913D11A2505FB0605BA
:103C800095F84253954201D0FF2A0AD11A2505FB27
:103C9000060696F843539D4201D0FF2B01D1E0B2B6
:103CA00004E0013464B2012CDDDDFF2070BC7047FC
:103CB00010B5044600F068FF0121204600F0C0FF67
:103CC000002010BD30B587B0044602238DF81730B0
:103CD0000378DBB20A2B00F20481DFE813F00B005B
:103CE00002011A00F70002015000D6006E007800B1
:103CF0008800F10090F81E3313F0FF0F00F0F18000
:103D000001230370C82000F0BBFF204600F05CFFD9
:103D1000E7E0754801F010FA0A2001F025FA642066
:103D200000F0AEFF204600F03FFF84F81D0305239E
:103D300023700021204600F029FC6071802120467C
:103D400000F024FC0146207194F81C33A279029201
:103D50000025019594F81D2300928022204600F052
:103D6000FFFB94F81C336179A2790292019594F8D3
:103D70001D2300922A46204600F0F2FBB1E0FFF737
:103D8000C9FD002840F0AD80584801F0D5F90A205F
:103D900001F0EAF9002384F81F3394F83133012B42
:103DA00008D1534801F0C8F90A2001F0DDF90823D1
:103DB000237096E00723237093E0D0F8C433002BE0
:103DC00000F08F80012198470823237089E090F844
:103DD000371300F047FB002840F08380092323704D
:103DE000444801F0A9F90A2001F0BEF979E0D0F8C1
:103DF000783333B9404801F09FF90A2001F0B4F953
:103E00006FE00023C0F8743310E003F1DC0254F8D3
:103E10002220117994F84123914205D103F1DC026B
:103E200054F82220C4F874230133DBB2002BECD009
:103E3000D4F8743303B39B682046984780B90623AF
:103E40002370D4F8743319682C4801F075F90A20EE
:103E500001F08AF9D4F8C43303212046984740E0A2
:103E60000C232370D4F874331968254801F064F9E1
:103E70000A2001F079F934E00C232370214801F085
:103E80005BF90A2001F070F92BE0D0F874335BB1D4
:103E90001B6998478DF817009DF8173013F0FF0F36
:103EA0001FD10A2323701CE00C230370164801F075
:103EB00043F9164801F040F90A2001F055F910E0E5
:103EC000D0F874336BB15B6998470AE0FFF7F0FCF8
:103ED000D4F874332BB1DB68204698470023C4F82C
:103EE0007433002007B030BD748C0008888C000843
:103EF0009C8C0008C48C0008E08C0008008D000831
:103F0000148D0008348D0008B48B00085C8D000807
:103F1000C0F8B813704700BF08B5D0F8B833013304
:103F2000C0F8B833FFF7EAFC08BD00BF08B5037856
:103F300013F0FF0F08D1012380F81E33D0F8C433EB
:103F400043B10421984705E00378DBB2012B01D18E
:103F500002230370002008BD10B5044600F01CFECB
:103F60002179204600F024FB6179204600F020FBF7
:103F7000002384F81E33D4F8C43313B1052120463E
:103F80009847064801F0D8F80A2001F0EDF82046DD
:103F900000F0FAFD03232370002010BD748D00088B
:103FA00010B40B7803704B7843708B78CC7803EBAC
:103FB000042343800B7903714B7943718B798371AF
:103FC000CB79C371082A16D90B7A4A7A03EB0223FC
:103FD00003818B7ACA7A03EB022343810B7B4A7BF2
:103FE00003EB022383818B7B8373CB7BC3730B7CBB
:103FF00003744B7C43745DF8044B70470B7803707B
:104000004B7843708B788370CB78C3700B790371D6
:104010004B7943718B798371CB79C3710B7A0372BE
:10402000704700BF0B7803704B7843708B788370B8
:10403000CB78C3700B794A7903EB022383808B79A9
:10404000837170474378032B14D110B40378023B7B
:104050009A42A8BF1A4692B2002305E0C418A47879
:1040600001F8014B02339BB29342F7D300230B704C
:104070005DF8044B704700BF30B583B00446037E43
:10408000013B0A2B00F2D780DFE803F0060F313D39
:104090004E5C768295A3B800427900F1100100F0E1
:1040A00003FA022323760120D2E0417900F0C2FD19
:1040B000012815D1237C03F08003E28A3AB113B1C1
:1040C00003232376C4E0052323760120C0E01BB13F
:1040D000092323760120BBE0072323760120B7E0E4
:1040E000042840F0AA800B2323760120B0E0D0F80A
:1040F000B833C38103798289816800F0FDF9042314
:1041000023760120A4E0017900F094FD012801D17B
:1041100009232376052800F09280042840F091803E
:104120000B232376012093E04379828901250095B2
:10413000816800F0CBF9D4F8B833E3810623237605
:10414000284685E0417900F075FD012802D107235A
:1041500023767DE0052803D10C232376032077E026
:10416000022803D105232376012071E004286AD1B7
:104170000B23237602206BE003790022114600F026
:10418000BBF9D4F8B833E3810823237601205FE03C
:10419000017900F04FFD012803D10D232376002083
:1041A00056E0042803D10B232376012050E0052894
:1041B0004BD001204CE043790125009500221146A7
:1041C00000F084F9D4F8B833E3810A232376284633
:1041D0003EE0417900F02EFD012803D10D23237626
:1041E000002035E0022803D10923237601202FE0A7
:1041F00004282CD10B232376012029E0437E0133B0
:10420000DBB24376022B05D800F0C6FC01202076F5
:10421000A0701DE0D0F8C4330621984700236376D0
:104220000C4800F089FF0C4800F086FF0A2000F0DF
:104230009BFF02200CE001200AE0012008E003209F
:1042400006E0012004E0012002E0032000E001205C
:1042500003B030BDB48B00088C8D000802780B8849
:1042600013440B8003781844704700BF2DE9F043D6
:1042700083B00C460B7803704B7843708B78C97809
:1042800003EB012343802379037163794371A3799D
:104290008371E379C371237A0372092A47D90546EA
:1042A0000923ADF8063000263AE00DF1060120465C
:1042B000FFF7D4FF04464378042B31D1B1461A20CE
:1042C00000FB06F00830284421460230FFF796FE36
:1042D000002717E00DF106012046FFF7BFFF044657
:1042E0004378052B0ED108F101001A2303FB09F3D3
:1042F00003EBC0000830284421460430FFF792FE4B
:1043000001377FB2B8461A2303FB09539B7B9F42B8
:1043100004DA6A88BDF806309A42DBD8013676B2F4
:10432000012E04DC6A88BDF806309A42BDD803B07D
:10433000BDE8F0838378012B02D0022B07D016E072
:1043400081608281012303760222827010E010B521
:104350000446FFF791FE034620B90122A270002215
:10436000227607E0022805D10122A27002E0012393
:1043700018467047184610BD38B5BDF810508478FF
:10438000012C11D161F07F04047406214174428232
:1043900002F47F44B4F5407F03D140F209428282A7
:1043A00001E000228282C5822A461946FFF7C2FF39
:1043B00038BD00BFF0B583B0044600F58E750E46DB
:1043C00000912B464FF480720021FFF7D5FF07467E
:1043D00028B93246294604F54870FFF7E1FD384612
:1043E00003B0F0BDF0B583B004460E4600F11C05E5
:1043F00000912B464FF400720021FFF7BDFF0746E6
:1044000028B93246294604F23230FFF72FFF3846EA
:1044100003B0F0BDF0B583B017461D4600F58E74AD
:104420000093234641F440720021FFF7A5FF0646A2
:1044300020B92A4639462046FFF704FE304603B02D
:10444000F0BD00BF08B58378012B06D100230374AB
:104450000522427441828382C38200221146FFF703
:1044600069FF08BD08B58378012B06D100230374CA
:104470000922427441828382C38200221146FFF7DF
:1044800059FF08BD08B58378012B07D102230374B7
:1044900001234374002343828182C3820022114698
:1044A000FFF748FF08BD00BF30B585B015460024B2
:1044B000039408230293019100942346224629463F
:1044C00000F0A4FB204605B030BD00BF30B585B07C
:1044D0000C4619469DF8203090F81D5305B1002375
:1044E0000393029201940123009300231A4600F0E3
:1044F0008DFB002005B030BD30B585B01D460024D1
:10450000039402920191012200922346294600F071
:104510007DFB204605B030BD30B585B01D4600247A
:10452000039402920191012200920323294600F094
:104530006DFB204605B030BD00230BE003F1DE0229
:1045400000EB8202526812F4004F01D198B270471A
:104550000133DBB20A2BF1D94FF6FF70704700BF71
:1045600010B584B0BDF8204002949DF81C40019421
:104570009DF81840009400F02FFB002004B010BDFF
:1045800008B500F03BFB002008BD00BF38B504466D
:104590000D46FFF7D1FF4FF6FF73984206D045F462
:1045A000004500F1DE0304EB83046560C0B238BD52
:1045B0000A2906D8DE3100EB81014B68C3F30E03F4
:1045C0004B600020704700BF2DE9F04F8DB00024F4
:1045D00001946E4B1A6B42F010021A631A6B02F0D0
:1045E00010020192019A02941A6B42F004021A63BB
:1045F0001A6B02F004020292029A03941A6B42F0C0
:1046000080021A631A6B02F080020392039A0494E8
:104610001A6B42F001021A631A6B02F00102049253
:10462000049A05941A6B42F002021A631A6B02F0A4
:1046300002020592059A06941A6B42F008021A6368
:104640001B6B03F008030693069B514F224608217B
:104650003846FCF729FEDFF84C810122114640461E
:10466000FCF722FE22464FF210014A48FCF71CFEDE
:10467000082507950126089609940A9407A9384643
:10468000FCF732FD0796089609940A9407A940465C
:10469000FCF72AFD07950225089509940A944FF026
:1046A0000509CDF82C9007A94046FCF71DFD102305
:1046B0000793089509940A944FF0060BCDF82CB097
:1046C000DFF8E4A007A95046FCF70EFDE0230793AE
:1046D000089509940A94CDF82C9007A95046FCF748
:1046E00003FD4FF0040ACDF81CA00894099407A913
:1046F0002948FCF7F9FC4FF4806307930895099467
:104700000A94CDF82C9007A92348FCF7EDFC4FF252
:1047100010030793089609940A9407A91D48FCF70B
:10472000E3FC4FF4A4530793089509940A94CDF839
:104730002CB007A94046FCF7D7FC20230793089428
:10474000099407A91348FCF7CFFC4FF410730793A3
:104750001223089309960A94CDF82CA007A90E48B5
:10476000FCF7C2FC07960D4B0893099407A938463D
:10477000FCF7BAFC07950A4B0893099407A9384639
:10478000FCF7B2FC0DB0BDE8F08F00BF003802406E
:1047900000100240000C0240000402400000111012
:1047A000000012100008024000000240034B1B688A
:1047B00013F0800FFAD0014B58607047004400405E
:1047C00070B51646002405E04D1C0878FFF7EEFF93
:1047D00001342946B442F7DB304670BDFEE700BF26
:1047E00008B50A480A4B03604FF4E13343600023E5
:1047F0008360C36003610C2242618361C361FDF782
:1048000085FF08B1FFF7EAFF08BD00BF08060020DA
:104810000044004000B595B000210191284B1A6C6E
:1048200042F080521A641B6C03F080530193019B89
:104830000291244B1A6842F480421A601B6803F408
:1048400080430293029B01230893099302230E9352
:104850004FF480020F92082210924FF4A872119226
:1048600012930723139308A8FDF7A6FA08B1FFF7E0
:10487000B5FF0F23039302230493002305934FF402
:10488000A05306934FF480530793052103A8FDF727
:1048900099FC08B1FFF7A2FFFDF76CFD0A4BA3FBE3
:1048A00000308009FCF7F4FB0420FCF707FC002231
:1048B00011464FF0FF30FCF7ADFB15B05DF804FB7F
:1048C0000038024000700040D34D621010B5FCF774
:1048D00059FBFFF79FFFFFF777FEFFF781FF00F01F
:1048E000BBF8154C01224FF480512046FCF7DCFC4C
:1048F000124800F099FC01224FF400512046FCF7C9
:10490000D3FC002201210E48FCF7CEFC01224FF41B
:1049100080412046FCF7C8FC002400E01C4600F063
:10492000B1F8631CB4F5803FF8D14FF44041024820
:10493000FCF7C0FCF0E700BF000C02409C8D0008B3
:104940000008024008B50720FCF752FB0022114680
:104950006FF00B00FCF75EFB002211466FF00A00BF
:10496000FCF758FB002211466FF00900FCF752FBE0
:10497000002211466FF00400FCF74CFB00221146A8
:104980006FF00300FCF746FB002211466FF00100B8
:10499000FCF740FB002211464FF0FF30FCF73AFBDA
:1049A00008BD00BF0268114B9A421ED100B587B006
:1049B000002300930E4B1A6C42F400321A641B6CF5
:1049C00003F400330093009B0C2301930223029312
:1049D00001230393032304930723059301A90548A7
:1049E000FCF782FB07B05DF804FB70470044004011
:1049F000003802400000024008B5FCF7DDFAFCF781
:104A00006FFB08BD08B50248FDF7F6F808BD00BF0A
:104A1000100A002004290CD0052902D002290BD14C
:104A200003E00322054B1A7070470222034B1A70F1
:104A300070470122014B1A70704700BFA405002087
:104A400008B5FEF7A5FEFEF7ADFE0146014800F0F1
:104A500073FB08BDAC8D000810B5074C0122074957
:104A60002046FFF76BF806492046FFF78BF82046F3
:104A7000FFF71EF910BD00BF48060020154A0008C8
:104A80000400002008B50248FFF71CF908BD00BF6C
:104A9000480600200368B3F1A04F32D130B587B08B
:104AA0004FF400730193002402940394154D01A95F
:104AB0002846FCF719FB4FF4E053019302230293BD
:104AC000039404940A23059301A92846FCF70CFBE0
:104AD0000D4B5A6B42F080025A6300945A6C42F4B8
:104AE00080425A645B6C03F480430093009B22462F
:104AF00021464320FCF78EFA4320FCF7BDFA07B0AD
:104B000030BD7047000002400038024008B5D0F8C0
:104B10009402FFF701FA08BD08B5D0F89402FFF738
:104B200005FA08BD08B5D0F89402FFF715FA08BDDC
:104B3000704700BF90F8BC33012B20D110B504465C
:104B40001048C0F89442C4F8C0034FF0A04303607B
:104B5000082383600323C360002303610222826170
:104B6000C361FCF735FC08B1FFF738FE0548FDF7D7
:104B700017F901462046FFF7CBF9002010BD0020B1
:104B8000704700BF100A002008B5D0F8C003FDF739
:104B9000D1F8002008BD00BF08B5D0F8C003FDF76C
:104BA000DFF8002008BD00BF08B5D0F8C003FDF74E
:104BB000FDF810B1022802D003E0002008BD022059
:104BC00008BD012008BD00BF08B5D0F8C003FDF73F
:104BD000D9F8002008BD00BF10B584B0D0F8C003DC
:104BE000BDF8204002949DF81C4001949DF81840A7
:104BF0000094FCF7A1FB002004B010BD08B5D0F86C
:104C0000C003FCF7D3FB002008BD00BF10B584B083
:104C1000D0F8C0039DF824400394BDF820400294CE
:104C2000079C01949DF818400094FCF70FFC0020AD
:104C300004B010BD08B5D0F8C003FDF7A9F808BD51
:104C400008B5C820FCF7C6F9002008BD10B4D0F89C
:104C5000C00301EB8104E3001C46034493F83B309E
:104C600023B12346034483F8502005E001EB810182
:104C7000CB00034483F8512000205DF8044B7047BB
:104C800008B5FCF7A7F908BD70B50E4B0E4CE41A39
:104C9000A41000251E46A54204D056F8253098479A
:104CA0000135F8E703F05CFD084C094BE41AA41049
:104CB00000251E46A54204D056F8253098470135F8
:104CC000F8E770BD8C8F00088C8F0008908F00086B
:104CD0008C8F0008024B0146186800F00BB800BF2B
:104CE00024050020024B0146186802F047BB00BFB4
:104CF000240500202DE9F04F01F10B04162C85B09E
:104D0000814603D934F0070401D502E010248C4217
:104D100003D20C23C9F80030EAE1484600F00AFA51
:104D2000B4F5FC7F9E4D17D204F108022A44A2F18B
:104D3000080156688E424FEAD40302D1D668B242C7
:104D400008D07368F268B16823F00303CA60334483
:104D500091602FE002333DE0630A1AD0042B02D8A1
:104D6000A309383318E0142B01D85B3314E0542B1B
:104D700002D8230B6E330FE0B3F5AA7F02D8E30B02
:104D8000773309E040F25452934204D8A30C7C33A9
:104D900002E03F2300E07E235A1C05EBC202A2F191
:104DA000080056680CE00029F16808DBB368D96098
:104DB0008B60B3185A6842F001025A60A3E10E46B4
:104DC000864206D0726822F00302111B0F29EADD29
:104DD000013B0133724A2E6902F10807BE4239468F
:104DE00079D0706820F00300C4EB000EBEF10F0F05
:104DF0000DDD331944F001047460536113614EF00A
:104E00000102DF609F605A6043F80EE07BE1BEF173
:104E1000000F5761176105DB3044436843F001031D
:104E2000436070E1B0F5007F15D2C0084FEAA00ED4
:104E3000012707FA0EFE576801304EEA0707576050
:104E400002EBC00752F830E0C6F808E0083FF76010
:104E500042F830603DE0420A042A02D88209383222
:104E600015E0142A01D85B3211E0542A02D8020B53
:104E70006E320CE0B2F5AA7F02D8C20B773206E0A0
:104E800040F25457BA429ABF820C7C327E22571CA1
:104E900005EBC20E55F83770DFF804C1BE450DD1E1
:104EA0000120921000FA02F2DCF804001043CCF862
:104EB0000400724609E0BF68BE4504D07A6822F05B
:104EC00003029042F7D3FA68BE46F260C6F808E0E3
:104ED0009660CEF80C6001209A1000FA02F2686821
:104EE00082425FD8024206D123F0030352000242FD
:104EF00003F10403FAD005EBC308C2469C46DAF876
:104F00000C6056452CD07068F76820F00300C4EBA5
:104F1000000EBEF10F0F11DD331944F0010474606F
:104F200056F8082FD760BA604EF001026B612B6112
:104F3000D96099605A6043F80EE00BE0BEF1000FB3
:104F40000CDB33185A6842F001025A6056F8083FE9
:104F5000DF60BB60484600F0EEF8D8E03E46D0E7A0
:104F60000CF1010C1CF0030F0AF1080AC7D19807D5
:104F700004D16B6823EA02036B6005E058F8080966
:104F8000804503F1FF33F2D068685200824209D8AD
:104F900042B163460242AED104335200FAE700BF89
:104FA00024000020D5F808B0DBF8046026F00306E2
:104FB000B44203D8331B0F2B00F39C80564A574949
:104FC00012680868019102F11008554A03920130F5
:104FD00018BF02F1FF31A0441EBF8844514201EACC
:104FE00008080BEB060341464846029300F024F9FB
:104FF000421C07466FD0029B039A834201D9AB45FE
:1050000069D1DFF828A1DFF828C1DAF80000BB4237
:105010004044CAF8000008D113EA0C0F05D1AB6870
:10502000464446F001065E6049E00199D1F800E08F
:10503000BEF1FF3F15BFFB1A384B1B181F6018BF8E
:10504000CAF8003017F007031CBFC3F10803FF18AC
:10505000B8441A4408EA0C08C8EB0208414648461E
:1050600000F0EAF8431C04BF38464FF00008DAF8B5
:105070000030AF60C21B4244434442F00102AB45E2
:10508000CAF800307A601AD00F2E02D801237B6054
:1050900021E0DBF804300C3E26F0070603F00103A4
:1050A0003343CBF804300BEB060305220F2E5A6076
:1050B0009A6004D90BF10801484602F05FF9194AD9
:1050C000DAF8003011688B4288BF1360164A116805
:1050D0008B4288BF1360AB685A6822F00302944287
:1050E000A2EB040301D80F2B04DC484600F023F8A0
:1050F00000260CE0AE6844F00102344443F00103A2
:105100007260AC606360484600F015F808363046BF
:1051100005B0BDE8F08F00BFB005002030040020CE
:1051200080000000AC050020A8050020B405002088
:105130007F000000704770470FB40A4B13B51C681E
:1051400024B1A36913B9204602F050F805AB049AC4
:10515000A1680193204600F07FF802B0BDE810403E
:1051600004B070472405002038B5084B1C6805467C
:1051700024B1A36913B9204602F038F8A268294681
:105180002046BDE8384002F099BE00BF240500204B
:1051900030B5054689B008460C46FBF719F81E4B9A
:1051A0000693012305900793184404AB019302234F
:1051B00004940390029325B1AB6913B9284602F019
:1051C00015F8AB69AC6813B9284602F00FF8134B19
:1051D0009C4201D16C6808E0114B9C4201D1AC6843
:1051E00003E0104B9C4208BFEC68B4F90C309A0401
:1051F00006D4626E43F4005322F40052A381626627
:1052000001AA2146284602F077F9002814BF4FF082
:10521000FF300A2009B030BDB48D0008188E000898
:10522000388E0008588E0008024B01461868FFF7B8
:10523000AFBF00BF2405002038B5064C002305464B
:105240000846236003F07EFA431C02D1236803B1B1
:105250002B6038BDA80C00202DE9F04FBDB08B4667
:1052600005921C461F46824602F0B8FA03680D9369
:105270001846FAF7ADFF0890BAF1000F05D0DAF83A
:10528000183013B9504601F0B1FF9D4B9B4502D138
:10529000DAF804B00AE09B4B9B4502D1DAF808B07B
:1052A00004E0994B9B4508BFDAF80CB0BBF90C3011
:1052B000980409D4DBF8642043F4005322F400522C
:1052C000ABF80C30CBF86420BBF80C30190709D5CB
:1052D000DBF8103033B1BBF80C3003F01A030A2BA3
:1052E00016D109E05946504600F0E6FF0028F2D0FA
:1052F0004FF0FF3000F0A3BFBBF90E30002B07DBEF
:105300002346059A5946504600F0A0FF00F097BF8B
:105310009FED797B8DED067B00232CAC1F942193B0
:1053200020930493119310930A93059D2B4613F831
:10533000012B1AB1252A01D01D46F7E7059BEE1A6D
:1053400017D084E84800219B33442193209B0133EC
:10535000072B209301DC083408E01FAA5946504669
:1053600002F0CDFF002840F033862CAC0A9B33447A
:105370000A932B78002B00F0248600226B1C8DF8FA
:105380005F2011464FF0FF39099215460A205E1C36
:105390001B7805960293029B203B582B00F26A82F1
:1053A000DFE813F05C00680268026C0068026802C3
:1053B00068026802680268026F00590068027A0099
:1053C0007D006802A400B600B600B600B600B600C4
:1053D000B600B600B600B60068026802680268024D
:1053E000680268026802680268026802E600120148
:1053F000680212016802680268026802C900680255
:105400006802590168026802680268026802A00125
:10541000680268026700680268026802680268023F
:1054200068026802680268026802DD006100120119
:1054300012011201CC00610068026802CF0068020C
:105440003B015B017601DA00680287016802A20174
:1054500068026802BA0101222B2102E009B9012287
:105460002021059B93E7002A00F087808DF85F10CC
:1054700083E00AB18DF85F10244B51E145F001053E
:10548000EFE73E680996002E07F1040301DB1F4693
:10549000E7E7764209961F4645F00405E1E7059ED9
:1054A000059B367802962A2E03F1010302D04FF0B5
:1054B00000090AE0D7F8009005933E1DB9F1000FEE
:1054C0003746CEDA4FF0FF39CBE70593029B303BEE
:1054D000092B08D800FB0939059B1E4616F8013B2D
:1054E00002933346F1E749EAE97954E745F080054C
:1054F000B7E700BFAFF3008000000000000000002D
:10550000188E0008388E0008588E0008D68D0008C6
:1055100000230993029B099E303B00FB063309934D
:10552000059B1E4616F8013B0293029B0596303BF5
:10553000092BEFD92FE745F0080592E745F0400524
:105540008FE7059B1B786C2B03D1059B01330593DB
:1055500002E045F0100584E745F0200581E73B1D9A
:10556000039300263B688DF888308DF85F6090E1EA
:105570000AB18DF85F1045F01005AA0608D5073767
:1055800027F0070707F108030393D7E900670EE048
:1055900015F0100F07F1040302D003933E6805E0F5
:1055A0003E68039315F0400F18BF36B2F717002E70
:1055B00077F1000380F2DE8076424FF02D0367EB37
:1055C00047078DF85F30D5E00AB18DF85F100737D7
:1055D00027F0070707F10803039397ED007B8DED94
:1055E000067B069B1293079B23F0004313934FF017
:1055F000FF32AB4BDDE91201FBF794FA002840F0D3
:10560000EE844FF0FF32A64BDDE91201FBF76CFA96
:10561000002840F0E48400F0FBBD0AB18DF85F1073
:1056200015F0200F07F1040307D00A993A68CE1746
:1056300008463146C2E900010BE0E90606D46A06D5
:1056400004D53A68BDF82810118002E03A680A993A
:1056500011601F4669E645F0100515F0200309D0DA
:10566000073727F0070707F10803D7E90067039317
:1056700000237BE03A1D15F01001039205D115F0CF
:10568000400302D03E880027F2E73E6800276DE025
:105690003B1D0393302378228DF86030814B3E68A8
:1056A0001193002745F002058DF861200223029234
:1056B0005CE000263B1DB1450393D7F800808DF8D0
:1056C0005F600ADB4A4631464046FAF789FD00280A
:1056D00000F0EA80C8EB0009E7E04046FAF778FD01
:1056E0008146E2E045F01005AE0608D5073727F001
:1056F000070707F108030393D7E900670AE03B1D9A
:1057000015F0100F039303D1680601D53E8800E021
:105710003E680027012329E00AB18DF85F10614B34
:105720001193A90608D5073727F0070707F10803E3
:105730000393D7E900670AE03B1D15F0100F0393B0
:1057400003D16A0601D53E8800E03E680027EB07DA
:105750000BD556EA070308D030238DF860309DF84A
:1057600008308DF8613045F00205022300228DF8E3
:105770005F2000E00123B9F1000FC0F25A8556EA1C
:10578000070225F0800103D1B9F1000F5FD006E0D8
:105790000D46012B25D0022B46D0294607E00D46A9
:1057A000012B22D0022B3DD02946002600270DF1E7
:1057B000B008F20842EA4772F80806F00703074605
:1057C0001646303356EA070208F8013DF1D1E807E2
:1057D00048D5302B46D0302308F8013C08F1FF387B
:1057E00040E0002F08BF0A2E05D20DF1F008303638
:1057F00008F8416D29E00DF1B008304639460A221B
:105800000023FBF7CDF9303208F8012D0023304694
:1058100039460A22FBF7C4F906460F4656EA070343
:10582000EBD112E0002600270DF1B00806F00F03BF
:10583000119AD35C08F8013D330943EA07733A092A
:105840001E46174656EA0703F0D129460AE03BB93F
:10585000EA0705D50DF1F008302308F8413D01E0D5
:105860000DF1B0084E460DF1B009C8EB09090D461F
:1058700000271BE00AB18DF85F10029B002B00F09F
:10588000A0839DF808308DF8883000268DF85F6081
:1058900003974FF0010937460DF1880806E000BF75
:1058A000FFFFEF7FE78D0008064637464E4533463B
:1058B000B8BF4B460B939DF85F3013B10B9B013380
:1058C0000B9315F0020314931EBF0B9B02330B9333
:1058D00015F08403159339D1099B0B9A9B1A002B61
:1058E0000C9333DD0C9B102BA64B236018DD10238B
:1058F0006360219B10332193209B0133072B20935E
:1059000001DC083408E01FAA5946504602F0F7FCB3
:10591000002840F05D832CAC0C9B103B0C93E1E71E
:105920000C9B63600C9A219B13442193209B0133B1
:10593000072B209301DC083408E01FAA5946504683
:1059400002F0DDFC002840F043832CAC9DF85F3072
:10595000BBB10DF15F03236001236360219B013321
:105960002193209B0133072B209301DC083408E0AE
:105970001FAA5946504602F0C2FC002840F0288376
:105980002CAC149BB3B118AB236002236360219B42
:1059900002332193209B0133072B209301DC083431
:1059A00008E01FAA5946504602F0A9FC002840F022
:1059B0000F832CAC159B802B35D1099B0B9A9B1A1E
:1059C000002B30DD704A2260102B18DD102262603F
:1059D000219A10322192209A0132072A209201DC6A
:1059E00008340AE01FAA594650460C9302F087FC7F
:1059F000002840F0ED820C9B2CAC103BE2E7219A92
:105A0000636013442193209B0133072B209301DC17
:105A1000083408E01FAA5946504602F070FC0028DE
:105A200040F0D6822CACC9EB0606002E2EDD564B7C
:105A30002360102E16DD10236360219B1033219309
:105A4000209B0133072B209301DC083408E01FAAB8
:105A50005946504602F053FC002840F0B9822CAC65
:105A6000103EE4E7209B2198666001330644072B33
:105A70002196209301DC083408E01FAA59465046BD
:105A800002F03DFC002840F0A3822CACEB0514D4BE
:105A9000219B84E800034B442193209B0133072B77
:105AA000209340F344821FAA5946504602F027FC37
:105AB000002840F08D822CAC3AE2029B652B40F32B
:105AC000AD8100220023DDE90601FAF7F9FF002885
:105AD0005ED02E4B236001236360219B0133219311
